{
  "_format": "hh-sol-artifact-1",
  "contractName": "MinorityGame",
  "sourceName": "contracts/MinorityGame.sol",
  "abi": [
    {
      "inputs": [
        {
          "internalType": "uint256",
          "name": "_ticketPrice",
          "type": "uint256"
        }
      ],
      "stateMutability": "nonpayable",
      "type": "constructor"
    },
    {
      "inputs": [
        {
          "internalType": "bytes32",
          "name": "",
          "type": "bytes32"
        }
      ],
      "name": "commitMap",
      "outputs": [
        {
          "internalType": "bool",
          "name": "",
          "type": "bool"
        }
      ],
      "stateMutability": "view",
      "type": "function"
    },
    {
      "inputs": [],
      "name": "emergencyRepay",
      "outputs": [],
      "stateMutability": "payable",
      "type": "function"
    },
    {
      "inputs": [],
      "name": "gameMaster",
      "outputs": [
        {
          "internalType": "address payable",
          "name": "",
          "type": "address"
        }
      ],
      "stateMutability": "view",
      "type": "function"
    },
    {
      "inputs": [],
      "name": "getBalance",
      "outputs": [
        {
          "internalType": "uint256",
          "name": "",
          "type": "uint256"
        }
      ],
      "stateMutability": "view",
      "type": "function"
    },
    {
      "inputs": [],
      "name": "getPlayersNumber",
      "outputs": [
        {
          "internalType": "uint256",
          "name": "",
          "type": "uint256"
        }
      ],
      "stateMutability": "view",
      "type": "function"
    },
    {
      "inputs": [
        {
          "internalType": "address",
          "name": "add",
          "type": "address"
        },
        {
          "internalType": "uint256",
          "name": "option",
          "type": "uint256"
        },
        {
          "internalType": "uint256",
          "name": "unix",
          "type": "uint256"
        },
        {
          "internalType": "string",
          "name": "salt",
          "type": "string"
        }
      ],
      "name": "hasher",
      "outputs": [
        {
          "internalType": "bytes32",
          "name": "",
          "type": "bytes32"
        }
      ],
      "stateMutability": "pure",
      "type": "function"
    },
    {
      "inputs": [
        {
          "internalType": "uint256",
          "name": "",
          "type": "uint256"
        }
      ],
      "name": "players",
      "outputs": [
        {
          "internalType": "address payable",
          "name": "",
          "type": "address"
        }
      ],
      "stateMutability": "view",
      "type": "function"
    },
    {
      "inputs": [],
      "name": "qid",
      "outputs": [
        {
          "internalType": "uint256",
          "name": "",
          "type": "uint256"
        }
      ],
      "stateMutability": "view",
      "type": "function"
    },
    {
      "inputs": [
        {
          "components": [
            {
              "internalType": "address",
              "name": "_address",
              "type": "address"
            },
            {
              "internalType": "uint256",
              "name": "option",
              "type": "uint256"
            },
            {
              "internalType": "uint256",
              "name": "unix",
              "type": "uint256"
            },
            {
              "internalType": "string",
              "name": "salt",
              "type": "string"
            }
          ],
          "internalType": "struct MinorityGame.Vote[]",
          "name": "votes",
          "type": "tuple[]"
        }
      ],
      "name": "reveal",
      "outputs": [],
      "stateMutability": "payable",
      "type": "function"
    },
    {
      "inputs": [],
      "name": "ticketPrice",
      "outputs": [
        {
          "internalType": "uint256",
          "name": "",
          "type": "uint256"
        }
      ],
      "stateMutability": "view",
      "type": "function"
    },
    {
      "inputs": [
        {
          "internalType": "bytes32",
          "name": "commitHash",
          "type": "bytes32"
        }
      ],
      "name": "vote",
      "outputs": [],
      "stateMutability": "payable",
      "type": "function"
    }
  ],
  "bytecode": "0x60806040523480156200001157600080fd5b5060405162001dfd38038062001dfd8339818101604052810190620000379190620000cd565b336000806101000a81548173ffffffffffffffffffffffffffffffffffffffff021916908373ffffffffffffffffffffffffffffffffffffffff16021790555080600181905550600160068190555050620000ff565b600080fd5b6000819050919050565b620000a78162000092565b8114620000b357600080fd5b50565b600081519050620000c7816200009c565b92915050565b600060208284031215620000e657620000e56200008d565b5b6000620000f684828501620000b6565b91505092915050565b611cee806200010f6000396000f3fe60806040526004361061009c5760003560e01c8063a69beaba11610064578063a69beaba14610148578063bdf84ae714610164578063cec4edee1461018f578063e3ecf3c7146101cc578063f71d96cb14610209578063fbcf4b3e146102465761009c565b806310c82a3b146100a157806312065fe0146100bd5780631209b1f6146100e857806374e9cf3414610113578063766eef111461011d575b600080fd5b6100bb60048036038101906100b691906114bc565b610271565b005b3480156100c957600080fd5b506100d26108fc565b6040516100df9190611514565b60405180910390f35b3480156100f457600080fd5b506100fd610904565b60405161010a9190611514565b60405180910390f35b61011b61090a565b005b34801561012957600080fd5b50610132610baf565b60405161013f9190611514565b60405180910390f35b610162600480360381019061015d9190611565565b610bbc565b005b34801561017057600080fd5b50610179610ca1565b60405161018691906115b3565b60405180910390f35b34801561019b57600080fd5b506101b660048036038101906101b19190611565565b610cc5565b6040516101c391906115e9565b60405180910390f35b3480156101d857600080fd5b506101f360048036038101906101ee9190611604565b610ce5565b6040516102009190611696565b60405180910390f35b34801561021557600080fd5b50610230600480360381019061022b91906116b1565b610d1e565b60405161023d91906115b3565b60405180910390f35b34801561025257600080fd5b5061025b610d5d565b6040516102689190611514565b60405180910390f35b60008054906101000a900473ffffffffffffffffffffffffffffffffffffffff1673ffffffffffffffffffffffffffffffffffffffff163373ffffffffffffffffffffffffffffffffffffffff16146102ff576040517f08c379a00000000000000000000000000000000000000000000000000000000081526004016102f690611761565b60405180910390fd5b80516003805490501461033a5761032d604051806080016040528060448152602001611c4060449139610d63565b61033561090a565b6107bf565b60005b81518110156105c657600082828151811061035b5761035a611781565b5b602002602001015160200151036103f257600482828151811061038157610380611781565b5b6020026020010151600001519080600181540180825580915050600190039060005260206000200160009091909190916101000a81548173ffffffffffffffffffffffffffffffffffffffff021916908373ffffffffffffffffffffffffffffffffffffffff1602179055506104ce565b600182828151811061040757610406611781565b5b6020026020010151602001510361049e57600582828151811061042d5761042c611781565b5b6020026020010151600001519080600181540180825580915050600190039060005260206000200160009091909190916101000a81548173ffffffffffffffffffffffffffffffffffffffff021916908373ffffffffffffffffffffffffffffffffffffffff1602179055506104cd565b6104bf604051806060016040528060348152602001611be360349139610d63565b6104c761090a565b506107bf565b5b60006105548383815181106104e6576104e5611781565b5b60200260200101516000015184848151811061050557610504611781565b5b60200260200101516020015185858151811061052457610523611781565b5b60200260200101516040015186868151811061054357610542611781565b5b602002602001015160600151610ce5565b9050600115156002600083815260200190815260200160002060009054906101000a900460ff161515146105b2576105a3604051806060016040528060358152602001611c8460359139610d63565b6105ab61090a565b50506107bf565b5080806105be906117df565b91505061033d565b5060058054905060048054905011156106ab576106176040518060400160405280601881526020017f5b44454255472072657665616c5d206f7074312077696e730000000000000000815250610d63565b6106a6600580548060200260200160405190810160405280929190818152602001828054801561069c57602002820191906000526020600020905b8160009054906101000a900473ffffffffffffffffffffffffffffffffffffffff1673ffffffffffffffffffffffffffffffffffffffff1681526020019060010190808311610652575b5050505050610dfc565b6107be565b600580549050600480549050101561078f576106fb6040518060400160405280601881526020017f5b44454255472072657665616c5d206f7074302077696e730000000000000000815250610d63565b61078a600480548060200260200160405190810160405280929190818152602001828054801561078057602002820191906000526020600020905b8160009054906101000a900473ffffffffffffffffffffffffffffffffffffffff1673ffffffffffffffffffffffffffffffffffffffff1681526020019060010190808311610736575b5050505050610dfc565b6107bd565b6107b0604051806060016040528060388152602001611bab60389139610d63565b6107b861090a565b6107bf565b5b5b600067ffffffffffffffff8111156107da576107d9611174565b5b6040519080825280602002602001820160405280156108085781602001602082028036833780820191505090505b506003908051906020019061081e9291906110a3565b50600067ffffffffffffffff81111561083a57610839611174565b5b6040519080825280602002602001820160405280156108685781602001602082028036833780820191505090505b506004908051906020019061087e9291906110a3565b50600067ffffffffffffffff81111561089a57610899611174565b5b6040519080825280602002602001820160405280156108c85781602001602082028036833780820191505090505b50600590805190602001906108de9291906110a3565b506001600660008282546108f29190611827565b9250508190555050565b600047905090565b60015481565b60008054906101000a900473ffffffffffffffffffffffffffffffffffffffff1673ffffffffffffffffffffffffffffffffffffffff163373ffffffffffffffffffffffffffffffffffffffff1614610998576040517f08c379a000000000000000000000000000000000000000000000000000000000815260040161098f90611761565b60405180910390fd5b60005b600380549050811015610a5157600381815481106109bc576109bb611781565b5b9060005260206000200160009054906101000a900473ffffffffffffffffffffffffffffffffffffffff1673ffffffffffffffffffffffffffffffffffffffff166108fc633b9aca00600154610a12919061187d565b9081150290604051600060405180830381858888f19350505050158015610a3d573d6000803e3d6000fd5b508080610a49906117df565b91505061099b565b50610a73604051806060016040528060298152602001611c1760299139610d63565b600067ffffffffffffffff811115610a8e57610a8d611174565b5b604051908082528060200260200182016040528015610abc5781602001602082028036833780820191505090505b5060039080519060200190610ad29291906110a3565b50600067ffffffffffffffff811115610aee57610aed611174565b5b604051908082528060200260200182016040528015610b1c5781602001602082028036833780820191505090505b5060049080519060200190610b329291906110a3565b50600067ffffffffffffffff811115610b4e57610b4d611174565b5b604051908082528060200260200182016040528015610b7c5781602001602082028036833780820191505090505b5060059080519060200190610b929291906110a3565b50600160066000828254610ba69190611827565b92505081905550565b6000600380549050905090565b633b9aca00600154610bce919061187d565b3414610c0f576040517f08c379a0000000000000000000000000000000000000000000000000000000008152600401610c0690611949565b60405180910390fd5b6003339080600181540180825580915050600190039060005260206000200160009091909190916101000a81548173ffffffffffffffffffffffffffffffffffffffff021916908373ffffffffffffffffffffffffffffffffffffffff16021790555060016002600083815260200190815260200160002060006101000a81548160ff02191690831515021790555050565b60008054906101000a900473ffffffffffffffffffffffffffffffffffffffff1681565b60026020528060005260406000206000915054906101000a900460ff1681565b600084848484604051602001610cfe9493929190611a4c565b604051602081830303815290604052805190602001209050949350505050565b60038181548110610d2e57600080fd5b906000526020600020016000915054906101000a900473ffffffffffffffffffffffffffffffffffffffff1681565b60065481565b610df981604051602401610d779190611acf565b6040516020818303038152906040527f41304fac000000000000000000000000000000000000000000000000000000007bffffffffffffffffffffffffffffffffffffffffffffffffffffffff19166020820180517bffffffffffffffffffffffffffffffffffffffffffffffffffffffff8381831617835250505050610fde565b50565b60008054906101000a900473ffffffffffffffffffffffffffffffffffffffff1673ffffffffffffffffffffffffffffffffffffffff163373ffffffffffffffffffffffffffffffffffffffff1614610e8a576040517f08c379a0000000000000000000000000000000000000000000000000000000008152600401610e8190611761565b60405180910390fd5b6000815103610ea057610e9b61090a565b610fdb565b60006064600547610eb1919061187d565b610ebb9190611b20565b905060008054906101000a900473ffffffffffffffffffffffffffffffffffffffff1673ffffffffffffffffffffffffffffffffffffffff166108fc829081150290604051600060405180830381858888f19350505050158015610f23573d6000803e3d6000fd5b506000825147610f339190611b20565b9050610f57604051806060016040528060298152602001611b826029913982611007565b60005b8351811015610fd757838181518110610f7657610f75611781565b5b602002602001015173ffffffffffffffffffffffffffffffffffffffff166108fc839081150290604051600060405180830381858888f19350505050158015610fc3573d6000803e3d6000fd5b508080610fcf906117df565b915050610f5a565b5050505b50565b60008151905060006a636f6e736f6c652e6c6f679050602083016000808483855afa5050505050565b61109f828260405160240161101d929190611b51565b6040516020818303038152906040527fb60e72cc000000000000000000000000000000000000000000000000000000007bffffffffffffffffffffffffffffffffffffffffffffffffffffffff19166020820180517bffffffffffffffffffffffffffffffffffffffffffffffffffffffff8381831617835250505050610fde565b5050565b82805482825590600052602060002090810192821561111c579160200282015b8281111561111b5782518260006101000a81548173ffffffffffffffffffffffffffffffffffffffff021916908373ffffffffffffffffffffffffffffffffffffffff160217905550916020019190600101906110c3565b5b509050611129919061112d565b5090565b5b8082111561114657600081600090555060010161112e565b5090565b6000604051905090565b600080fd5b600080fd5b600080fd5b6000601f19601f8301169050919050565b7f4e487b7100000000000000000000000000000000000000000000000000000000600052604160045260246000fd5b6111ac82611163565b810181811067ffffffffffffffff821117156111cb576111ca611174565b5b80604052505050565b60006111de61114a565b90506111ea82826111a3565b919050565b600067ffffffffffffffff82111561120a57611209611174565b5b602082029050602081019050919050565b600080fd5b600080fd5b600080fd5b600073ffffffffffffffffffffffffffffffffffffffff82169050919050565b60006112558261122a565b9050919050565b6112658161124a565b811461127057600080fd5b50565b6000813590506112828161125c565b92915050565b6000819050919050565b61129b81611288565b81146112a657600080fd5b50565b6000813590506112b881611292565b92915050565b600080fd5b600067ffffffffffffffff8211156112de576112dd611174565b5b6112e782611163565b9050602081019050919050565b82818337600083830152505050565b6000611316611311846112c3565b6111d4565b905082815260208101848484011115611332576113316112be565b5b61133d8482856112f4565b509392505050565b600082601f83011261135a5761135961115e565b5b813561136a848260208601611303565b91505092915050565b60006080828403121561138957611388611220565b5b61139360806111d4565b905060006113a384828501611273565b60008301525060206113b7848285016112a9565b60208301525060406113cb848285016112a9565b604083015250606082013567ffffffffffffffff8111156113ef576113ee611225565b5b6113fb84828501611345565b60608301525092915050565b600061141a611415846111ef565b6111d4565b9050808382526020820190506020840283018581111561143d5761143c61121b565b5b835b8181101561148457803567ffffffffffffffff8111156114625761146161115e565b5b80860161146f8982611373565b8552602085019450505060208101905061143f565b5050509392505050565b600082601f8301126114a3576114a261115e565b5b81356114b3848260208601611407565b91505092915050565b6000602082840312156114d2576114d1611154565b5b600082013567ffffffffffffffff8111156114f0576114ef611159565b5b6114fc8482850161148e565b91505092915050565b61150e81611288565b82525050565b60006020820190506115296000830184611505565b92915050565b6000819050919050565b6115428161152f565b811461154d57600080fd5b50565b60008135905061155f81611539565b92915050565b60006020828403121561157b5761157a611154565b5b600061158984828501611550565b91505092915050565b600061159d8261122a565b9050919050565b6115ad81611592565b82525050565b60006020820190506115c860008301846115a4565b92915050565b60008115159050919050565b6115e3816115ce565b82525050565b60006020820190506115fe60008301846115da565b92915050565b6000806000806080858703121561161e5761161d611154565b5b600061162c87828801611273565b945050602061163d878288016112a9565b935050604061164e878288016112a9565b925050606085013567ffffffffffffffff81111561166f5761166e611159565b5b61167b87828801611345565b91505092959194509250565b6116908161152f565b82525050565b60006020820190506116ab6000830184611687565b92915050565b6000602082840312156116c7576116c6611154565b5b60006116d5848285016112a9565b91505092915050565b600082825260208201905092915050565b7f4f6e6c792047616d654d61737465722063616e2063616c6c207468697320667560008201527f6e6374696f6e0000000000000000000000000000000000000000000000000000602082015250565b600061174b6026836116de565b9150611756826116ef565b604082019050919050565b6000602082019050818103600083015261177a8161173e565b9050919050565b7f4e487b7100000000000000000000000000000000000000000000000000000000600052603260045260246000fd5b7f4e487b7100000000000000000000000000000000000000000000000000000000600052601160045260246000fd5b60006117ea82611288565b91507fffffffffffffffffffffffffffffffffffffffffffffffffffffffffffffffff820361181c5761181b6117b0565b5b600182019050919050565b600061183282611288565b915061183d83611288565b9250827fffffffffffffffffffffffffffffffffffffffffffffffffffffffffffffffff03821115611872576118716117b0565b5b828201905092915050565b600061188882611288565b915061189383611288565b9250817fffffffffffffffffffffffffffffffffffffffffffffffffffffffffffffffff04831182151516156118cc576118cb6117b0565b5b828202905092915050565b7f6d73672e76616c756520646f6573206e6f7420657175616c207469636b65745060008201527f7269636500000000000000000000000000000000000000000000000000000000602082015250565b60006119336024836116de565b915061193e826118d7565b604082019050919050565b6000602082019050818103600083015261196281611926565b9050919050565b60008160601b9050919050565b600061198182611969565b9050919050565b600061199382611976565b9050919050565b6119ab6119a68261124a565b611988565b82525050565b6000819050919050565b6119cc6119c782611288565b6119b1565b82525050565b600081519050919050565b600081905092915050565b60005b83811015611a065780820151818401526020810190506119eb565b83811115611a15576000848401525b50505050565b6000611a26826119d2565b611a3081856119dd565b9350611a408185602086016119e8565b80840191505092915050565b6000611a58828761199a565b601482019150611a6882866119bb565b602082019150611a7882856119bb565b602082019150611a888284611a1b565b915081905095945050505050565b6000611aa1826119d2565b611aab81856116de565b9350611abb8185602086016119e8565b611ac481611163565b840191505092915050565b60006020820190508181036000830152611ae98184611a96565b905092915050565b7f4e487b7100000000000000000000000000000000000000000000000000000000600052601260045260246000fd5b6000611b2b82611288565b9150611b3683611288565b925082611b4657611b45611af1565b5b828204905092915050565b60006040820190508181036000830152611b6b8185611a96565b9050611b7a6020830184611505565b939250505056fe5b444542554720646973747269627574655072697a655d2077696e6e696e67416d6f756e743a2025735b44454255472072657665616c5d206e656974686572206f7030206e6f72206f70312077696e732c20656d657267656e63792072657061795b44454255472072657665616c5d20556e657870656374656420766f746520646174612c20656d657267656e63792072657061795b444542554720656d657267656e637952657061795d20656d657267656e6379526570617920454e445b44454255472072657665616c5d204e756d626572206f6620766f74657320213d206e756d626572206f6620706c61796572732c20656d657267656e63792072657061795b44454255472072657665616c5d20436f6d6d69742068617368206e6f7420666f756e642c20656d657267656e6379207265706179a264697066735822122059920b1ad045e79132a2dcae51863b1dfd761eff8aba426f12c60f67519fa6c964736f6c634300080f0033",
  "linkReferences": {},
  "deployedLinkReferences": {}
}