{
  "_format": "hh-sol-artifact-1",
  "contractName": "MinorityGame",
  "sourceName": "contracts/MinorityGame.sol",
  "abi": [
    {
      "inputs": [
        {
          "internalType": "uint256",
          "name": "_ticketPrice",
          "type": "uint256"
        }
      ],
      "stateMutability": "nonpayable",
      "type": "constructor"
    },
    {
      "inputs": [
        {
          "internalType": "bytes32",
          "name": "",
          "type": "bytes32"
        }
      ],
      "name": "commitMap",
      "outputs": [
        {
          "internalType": "bool",
          "name": "",
          "type": "bool"
        }
      ],
      "stateMutability": "view",
      "type": "function"
    },
    {
      "inputs": [],
      "name": "emergencyRepay",
      "outputs": [],
      "stateMutability": "payable",
      "type": "function"
    },
    {
      "inputs": [],
      "name": "gameMaster",
      "outputs": [
        {
          "internalType": "address payable",
          "name": "",
          "type": "address"
        }
      ],
      "stateMutability": "view",
      "type": "function"
    },
    {
      "inputs": [],
      "name": "getBalance",
      "outputs": [
        {
          "internalType": "uint256",
          "name": "",
          "type": "uint256"
        }
      ],
      "stateMutability": "view",
      "type": "function"
    },
    {
      "inputs": [],
      "name": "getPlayersNumber",
      "outputs": [
        {
          "internalType": "uint256",
          "name": "",
          "type": "uint256"
        }
      ],
      "stateMutability": "view",
      "type": "function"
    },
    {
      "inputs": [
        {
          "internalType": "address",
          "name": "add",
          "type": "address"
        },
        {
          "internalType": "uint256",
          "name": "option",
          "type": "uint256"
        },
        {
          "internalType": "uint256",
          "name": "unix",
          "type": "uint256"
        },
        {
          "internalType": "string",
          "name": "salt",
          "type": "string"
        }
      ],
      "name": "hasher",
      "outputs": [
        {
          "internalType": "bytes32",
          "name": "",
          "type": "bytes32"
        }
      ],
      "stateMutability": "pure",
      "type": "function"
    },
    {
      "inputs": [
        {
          "internalType": "uint256",
          "name": "",
          "type": "uint256"
        }
      ],
      "name": "players",
      "outputs": [
        {
          "internalType": "address payable",
          "name": "",
          "type": "address"
        }
      ],
      "stateMutability": "view",
      "type": "function"
    },
    {
      "inputs": [],
      "name": "qid",
      "outputs": [
        {
          "internalType": "uint256",
          "name": "",
          "type": "uint256"
        }
      ],
      "stateMutability": "view",
      "type": "function"
    },
    {
      "inputs": [
        {
          "components": [
            {
              "internalType": "address",
              "name": "_address",
              "type": "address"
            },
            {
              "internalType": "uint256",
              "name": "option",
              "type": "uint256"
            },
            {
              "internalType": "uint256",
              "name": "unix",
              "type": "uint256"
            },
            {
              "internalType": "string",
              "name": "salt",
              "type": "string"
            }
          ],
          "internalType": "struct MinorityGame.Vote[]",
          "name": "votes",
          "type": "tuple[]"
        }
      ],
      "name": "reveal",
      "outputs": [],
      "stateMutability": "payable",
      "type": "function"
    },
    {
      "inputs": [],
      "name": "ticketPrice",
      "outputs": [
        {
          "internalType": "uint256",
          "name": "",
          "type": "uint256"
        }
      ],
      "stateMutability": "view",
      "type": "function"
    },
    {
      "inputs": [
        {
          "internalType": "bytes32",
          "name": "commitHash",
          "type": "bytes32"
        }
      ],
      "name": "vote",
      "outputs": [],
      "stateMutability": "payable",
      "type": "function"
    }
  ],
  "bytecode": "0x60806040523480156200001157600080fd5b5060405162001f5638038062001f568339818101604052810190620000379190620000cd565b336000806101000a81548173ffffffffffffffffffffffffffffffffffffffff021916908373ffffffffffffffffffffffffffffffffffffffff16021790555080600181905550600160068190555050620000ff565b600080fd5b6000819050919050565b620000a78162000092565b8114620000b357600080fd5b50565b600081519050620000c7816200009c565b92915050565b600060208284031215620000e657620000e56200008d565b5b6000620000f684828501620000b6565b91505092915050565b611e47806200010f6000396000f3fe60806040526004361061009c5760003560e01c8063a69beaba11610064578063a69beaba14610148578063bdf84ae714610164578063cec4edee1461018f578063e3ecf3c7146101cc578063f71d96cb14610209578063fbcf4b3e146102465761009c565b806310c82a3b146100a157806312065fe0146100bd5780631209b1f6146100e857806374e9cf3414610113578063766eef111461011d575b600080fd5b6100bb60048036038101906100b691906115d6565b610271565b005b3480156100c957600080fd5b506100d26108fc565b6040516100df919061162e565b60405180910390f35b3480156100f457600080fd5b506100fd610904565b60405161010a919061162e565b60405180910390f35b61011b61090a565b005b34801561012957600080fd5b50610132610baf565b60405161013f919061162e565b60405180910390f35b610162600480360381019061015d919061167f565b610bbc565b005b34801561017057600080fd5b50610179610d1f565b60405161018691906116cd565b60405180910390f35b34801561019b57600080fd5b506101b660048036038101906101b1919061167f565b610d43565b6040516101c39190611703565b60405180910390f35b3480156101d857600080fd5b506101f360048036038101906101ee919061171e565b610d63565b60405161020091906117b0565b60405180910390f35b34801561021557600080fd5b50610230600480360381019061022b91906117cb565b610d9c565b60405161023d91906116cd565b60405180910390f35b34801561025257600080fd5b5061025b610ddb565b604051610268919061162e565b60405180910390f35b60008054906101000a900473ffffffffffffffffffffffffffffffffffffffff1673ffffffffffffffffffffffffffffffffffffffff163373ffffffffffffffffffffffffffffffffffffffff16146102ff576040517f08c379a00000000000000000000000000000000000000000000000000000000081526004016102f69061187b565b60405180910390fd5b80516003805490501461033a5761032d604051806080016040528060448152602001611d9960449139610de1565b61033561090a565b6107bf565b60005b81518110156105c657600082828151811061035b5761035a61189b565b5b602002602001015160200151036103f25760048282815181106103815761038061189b565b5b6020026020010151600001519080600181540180825580915050600190039060005260206000200160009091909190916101000a81548173ffffffffffffffffffffffffffffffffffffffff021916908373ffffffffffffffffffffffffffffffffffffffff1602179055506104ce565b60018282815181106104075761040661189b565b5b6020026020010151602001510361049e57600582828151811061042d5761042c61189b565b5b6020026020010151600001519080600181540180825580915050600190039060005260206000200160009091909190916101000a81548173ffffffffffffffffffffffffffffffffffffffff021916908373ffffffffffffffffffffffffffffffffffffffff1602179055506104cd565b6104bf604051806060016040528060348152602001611d3c60349139610de1565b6104c761090a565b506107bf565b5b60006105548383815181106104e6576104e561189b565b5b6020026020010151600001518484815181106105055761050461189b565b5b6020026020010151602001518585815181106105245761052361189b565b5b6020026020010151604001518686815181106105435761054261189b565b5b602002602001015160600151610d63565b9050600115156002600083815260200190815260200160002060009054906101000a900460ff161515146105b2576105a3604051806060016040528060358152602001611ddd60359139610de1565b6105ab61090a565b50506107bf565b5080806105be906118f9565b91505061033d565b5060058054905060048054905011156106ab576106176040518060400160405280601881526020017f5b44454255472072657665616c5d206f7074312077696e730000000000000000815250610de1565b6106a6600580548060200260200160405190810160405280929190818152602001828054801561069c57602002820191906000526020600020905b8160009054906101000a900473ffffffffffffffffffffffffffffffffffffffff1673ffffffffffffffffffffffffffffffffffffffff1681526020019060010190808311610652575b5050505050610e7a565b6107be565b600580549050600480549050101561078f576106fb6040518060400160405280601881526020017f5b44454255472072657665616c5d206f7074302077696e730000000000000000815250610de1565b61078a600480548060200260200160405190810160405280929190818152602001828054801561078057602002820191906000526020600020905b8160009054906101000a900473ffffffffffffffffffffffffffffffffffffffff1673ffffffffffffffffffffffffffffffffffffffff1681526020019060010190808311610736575b5050505050610e7a565b6107bd565b6107b0604051806060016040528060388152602001611d0460389139610de1565b6107b861090a565b6107bf565b5b5b600067ffffffffffffffff8111156107da576107d961128e565b5b6040519080825280602002602001820160405280156108085781602001602082028036833780820191505090505b506003908051906020019061081e9291906111bd565b50600067ffffffffffffffff81111561083a5761083961128e565b5b6040519080825280602002602001820160405280156108685781602001602082028036833780820191505090505b506004908051906020019061087e9291906111bd565b50600067ffffffffffffffff81111561089a5761089961128e565b5b6040519080825280602002602001820160405280156108c85781602001602082028036833780820191505090505b50600590805190602001906108de9291906111bd565b506001600660008282546108f29190611941565b9250508190555050565b600047905090565b60015481565b60008054906101000a900473ffffffffffffffffffffffffffffffffffffffff1673ffffffffffffffffffffffffffffffffffffffff163373ffffffffffffffffffffffffffffffffffffffff1614610998576040517f08c379a000000000000000000000000000000000000000000000000000000000815260040161098f9061187b565b60405180910390fd5b60005b600380549050811015610a5157600381815481106109bc576109bb61189b565b5b9060005260206000200160009054906101000a900473ffffffffffffffffffffffffffffffffffffffff1673ffffffffffffffffffffffffffffffffffffffff166108fc633b9aca00600154610a129190611997565b9081150290604051600060405180830381858888f19350505050158015610a3d573d6000803e3d6000fd5b508080610a49906118f9565b91505061099b565b50610a73604051806060016040528060298152602001611d7060299139610de1565b600067ffffffffffffffff811115610a8e57610a8d61128e565b5b604051908082528060200260200182016040528015610abc5781602001602082028036833780820191505090505b5060039080519060200190610ad29291906111bd565b50600067ffffffffffffffff811115610aee57610aed61128e565b5b604051908082528060200260200182016040528015610b1c5781602001602082028036833780820191505090505b5060049080519060200190610b329291906111bd565b50600067ffffffffffffffff811115610b4e57610b4d61128e565b5b604051908082528060200260200182016040528015610b7c5781602001602082028036833780820191505090505b5060059080519060200190610b929291906111bd565b50600160066000828254610ba69190611941565b92505081905550565b6000600380549050905090565b610bfb6040518060400160405280601a81526020017f5b444542554720766f74655d206d73672e76616c75653a2025730000000000008152503461105c565b633b9aca00600154610c0d9190611997565b3414610c4e576040517f08c379a0000000000000000000000000000000000000000000000000000000008152600401610c4590611a63565b60405180910390fd5b6003339080600181540180825580915050600190039060005260206000200160009091909190916101000a81548173ffffffffffffffffffffffffffffffffffffffff021916908373ffffffffffffffffffffffffffffffffffffffff16021790555060016002600083815260200190815260200160002060006101000a81548160ff021916908315150217905550610d1c6040518060400160405280601681526020017f5b444542554720766f74655d20566f7465723a20257300000000000000000000815250336110f8565b50565b60008054906101000a900473ffffffffffffffffffffffffffffffffffffffff1681565b60026020528060005260406000206000915054906101000a900460ff1681565b600084848484604051602001610d7c9493929190611b66565b604051602081830303815290604052805190602001209050949350505050565b60038181548110610dac57600080fd5b906000526020600020016000915054906101000a900473ffffffffffffffffffffffffffffffffffffffff1681565b60065481565b610e7781604051602401610df59190611be9565b6040516020818303038152906040527f41304fac000000000000000000000000000000000000000000000000000000007bffffffffffffffffffffffffffffffffffffffffffffffffffffffff19166020820180517bffffffffffffffffffffffffffffffffffffffffffffffffffffffff8381831617835250505050611194565b50565b60008054906101000a900473ffffffffffffffffffffffffffffffffffffffff1673ffffffffffffffffffffffffffffffffffffffff163373ffffffffffffffffffffffffffffffffffffffff1614610f08576040517f08c379a0000000000000000000000000000000000000000000000000000000008152600401610eff9061187b565b60405180910390fd5b6000815103610f1e57610f1961090a565b611059565b60006064600547610f2f9190611997565b610f399190611c3a565b905060008054906101000a900473ffffffffffffffffffffffffffffffffffffffff1673ffffffffffffffffffffffffffffffffffffffff166108fc829081150290604051600060405180830381858888f19350505050158015610fa1573d6000803e3d6000fd5b506000825147610fb19190611c3a565b9050610fd5604051806060016040528060298152602001611cdb602991398261105c565b60005b835181101561105557838181518110610ff457610ff361189b565b5b602002602001015173ffffffffffffffffffffffffffffffffffffffff166108fc839081150290604051600060405180830381858888f19350505050158015611041573d6000803e3d6000fd5b50808061104d906118f9565b915050610fd8565b5050505b50565b6110f48282604051602401611072929190611c6b565b6040516020818303038152906040527fb60e72cc000000000000000000000000000000000000000000000000000000007bffffffffffffffffffffffffffffffffffffffffffffffffffffffff19166020820180517bffffffffffffffffffffffffffffffffffffffffffffffffffffffff8381831617835250505050611194565b5050565b611190828260405160240161110e929190611caa565b6040516020818303038152906040527f319af333000000000000000000000000000000000000000000000000000000007bffffffffffffffffffffffffffffffffffffffffffffffffffffffff19166020820180517bffffffffffffffffffffffffffffffffffffffffffffffffffffffff8381831617835250505050611194565b5050565b60008151905060006a636f6e736f6c652e6c6f679050602083016000808483855afa5050505050565b828054828255906000526020600020908101928215611236579160200282015b828111156112355782518260006101000a81548173ffffffffffffffffffffffffffffffffffffffff021916908373ffffffffffffffffffffffffffffffffffffffff160217905550916020019190600101906111dd565b5b5090506112439190611247565b5090565b5b80821115611260576000816000905550600101611248565b5090565b6000604051905090565b600080fd5b600080fd5b600080fd5b6000601f19601f8301169050919050565b7f4e487b7100000000000000000000000000000000000000000000000000000000600052604160045260246000fd5b6112c68261127d565b810181811067ffffffffffffffff821117156112e5576112e461128e565b5b80604052505050565b60006112f8611264565b905061130482826112bd565b919050565b600067ffffffffffffffff8211156113245761132361128e565b5b602082029050602081019050919050565b600080fd5b600080fd5b600080fd5b600073ffffffffffffffffffffffffffffffffffffffff82169050919050565b600061136f82611344565b9050919050565b61137f81611364565b811461138a57600080fd5b50565b60008135905061139c81611376565b92915050565b6000819050919050565b6113b5816113a2565b81146113c057600080fd5b50565b6000813590506113d2816113ac565b92915050565b600080fd5b600067ffffffffffffffff8211156113f8576113f761128e565b5b6114018261127d565b9050602081019050919050565b82818337600083830152505050565b600061143061142b846113dd565b6112ee565b90508281526020810184848401111561144c5761144b6113d8565b5b61145784828561140e565b509392505050565b600082601f83011261147457611473611278565b5b813561148484826020860161141d565b91505092915050565b6000608082840312156114a3576114a261133a565b5b6114ad60806112ee565b905060006114bd8482850161138d565b60008301525060206114d1848285016113c3565b60208301525060406114e5848285016113c3565b604083015250606082013567ffffffffffffffff8111156115095761150861133f565b5b6115158482850161145f565b60608301525092915050565b600061153461152f84611309565b6112ee565b9050808382526020820190506020840283018581111561155757611556611335565b5b835b8181101561159e57803567ffffffffffffffff81111561157c5761157b611278565b5b808601611589898261148d565b85526020850194505050602081019050611559565b5050509392505050565b600082601f8301126115bd576115bc611278565b5b81356115cd848260208601611521565b91505092915050565b6000602082840312156115ec576115eb61126e565b5b600082013567ffffffffffffffff81111561160a57611609611273565b5b611616848285016115a8565b91505092915050565b611628816113a2565b82525050565b6000602082019050611643600083018461161f565b92915050565b6000819050919050565b61165c81611649565b811461166757600080fd5b50565b60008135905061167981611653565b92915050565b6000602082840312156116955761169461126e565b5b60006116a38482850161166a565b91505092915050565b60006116b782611344565b9050919050565b6116c7816116ac565b82525050565b60006020820190506116e260008301846116be565b92915050565b60008115159050919050565b6116fd816116e8565b82525050565b600060208201905061171860008301846116f4565b92915050565b600080600080608085870312156117385761173761126e565b5b60006117468782880161138d565b9450506020611757878288016113c3565b9350506040611768878288016113c3565b925050606085013567ffffffffffffffff81111561178957611788611273565b5b6117958782880161145f565b91505092959194509250565b6117aa81611649565b82525050565b60006020820190506117c560008301846117a1565b92915050565b6000602082840312156117e1576117e061126e565b5b60006117ef848285016113c3565b91505092915050565b600082825260208201905092915050565b7f4f6e6c792047616d654d61737465722063616e2063616c6c207468697320667560008201527f6e6374696f6e0000000000000000000000000000000000000000000000000000602082015250565b60006118656026836117f8565b915061187082611809565b604082019050919050565b6000602082019050818103600083015261189481611858565b9050919050565b7f4e487b7100000000000000000000000000000000000000000000000000000000600052603260045260246000fd5b7f4e487b7100000000000000000000000000000000000000000000000000000000600052601160045260246000fd5b6000611904826113a2565b91507fffffffffffffffffffffffffffffffffffffffffffffffffffffffffffffffff8203611936576119356118ca565b5b600182019050919050565b600061194c826113a2565b9150611957836113a2565b9250827fffffffffffffffffffffffffffffffffffffffffffffffffffffffffffffffff0382111561198c5761198b6118ca565b5b828201905092915050565b60006119a2826113a2565b91506119ad836113a2565b9250817fffffffffffffffffffffffffffffffffffffffffffffffffffffffffffffffff04831182151516156119e6576119e56118ca565b5b828202905092915050565b7f6d73672e76616c756520646f6573206e6f7420657175616c207469636b65745060008201527f7269636500000000000000000000000000000000000000000000000000000000602082015250565b6000611a4d6024836117f8565b9150611a58826119f1565b604082019050919050565b60006020820190508181036000830152611a7c81611a40565b9050919050565b60008160601b9050919050565b6000611a9b82611a83565b9050919050565b6000611aad82611a90565b9050919050565b611ac5611ac082611364565b611aa2565b82525050565b6000819050919050565b611ae6611ae1826113a2565b611acb565b82525050565b600081519050919050565b600081905092915050565b60005b83811015611b20578082015181840152602081019050611b05565b83811115611b2f576000848401525b50505050565b6000611b4082611aec565b611b4a8185611af7565b9350611b5a818560208601611b02565b80840191505092915050565b6000611b728287611ab4565b601482019150611b828286611ad5565b602082019150611b928285611ad5565b602082019150611ba28284611b35565b915081905095945050505050565b6000611bbb82611aec565b611bc581856117f8565b9350611bd5818560208601611b02565b611bde8161127d565b840191505092915050565b60006020820190508181036000830152611c038184611bb0565b905092915050565b7f4e487b7100000000000000000000000000000000000000000000000000000000600052601260045260246000fd5b6000611c45826113a2565b9150611c50836113a2565b925082611c6057611c5f611c0b565b5b828204905092915050565b60006040820190508181036000830152611c858185611bb0565b9050611c94602083018461161f565b9392505050565b611ca481611364565b82525050565b60006040820190508181036000830152611cc48185611bb0565b9050611cd36020830184611c9b565b939250505056fe5b444542554720646973747269627574655072697a655d2077696e6e696e67416d6f756e743a2025735b44454255472072657665616c5d206e656974686572206f7030206e6f72206f70312077696e732c20656d657267656e63792072657061795b44454255472072657665616c5d20556e657870656374656420766f746520646174612c20656d657267656e63792072657061795b444542554720656d657267656e637952657061795d20656d657267656e6379526570617920454e445b44454255472072657665616c5d204e756d626572206f6620766f74657320213d206e756d626572206f6620706c61796572732c20656d657267656e63792072657061795b44454255472072657665616c5d20436f6d6d69742068617368206e6f7420666f756e642c20656d657267656e6379207265706179a264697066735822122084d9b34ea95d22f47f1e6239c7fd83c985ff4f240cd5bfa757ec65303f39b11264736f6c634300080f0033",
  "linkReferences": {},
  "deployedLinkReferences": {}
}